:020000040800F2
:1000000070150020AD010008CB1500086B14000826
:10001000C9150008E5020008411A000800000000A8
:10002000000000000000000000000000DD160008D5
:100030007D03000800000000CD150008DF16000851
:10004000C7010008C7010008C7010008C701000870
:10005000C7010008C7010008C7010008C701000860
:10006000C7010008C7010008C7010008C701000850
:10007000C7010008C7010008C7010008C701000840
:10008000C7010008C7010008C70100080000000000
:10009000000000000000000000000000C701000890
:1000A000C7010008C7010008C7010008C701000810
:1000B000C7010008C7010008C7010008C701000800
:1000C000C7010008C7010008C7010008C7010008F0
:1000D000C7010008351A0008C70100080000000029
:1000E000C7010008C7010008C701000800000000A0
:1000F000000000000000000000000000C701000830
:1001000000000000C7010008C7010008C70100087F
:1001100000000000000000000000000000000000DF
:10012000C7010008C7010008E9020008C70100086C
:10013000C7010008000000000000000000000000EF
:10014000000000000000000000000000C7010008DF
:10015000C7010008C7010008F5020008C701000830
:10016000C7010008C70100080000000000000000EF
:10017000000000000000000000000000000000007F
:1001800000000000C701000800000000000000009F
:10019000C7010008C7010008DFF80CD000F090F894
:1001A000004800478D1E0008701500200648804753
:1001B00006480047FEE7FEE7FEE7FEE7FEE7FEE74C
:1001C000FEE7FEE7FEE7FEE7651700089901000875
:1001D0002DE9F05F0546002092469B46884606467C
:1001E000814640241BE0284641464746224600F00F
:1001F00057F853465A46C01A914110D31146184633
:10020000224600F03EF82D1A67EB01084F462246C1
:100210000120002100F035F817EB00094E41201EA7
:10022000A4F10104DFDC484631462A464346BDE8D6
:10023000F09FD2B201E000F8012B491EFBD27047BB
:100240000022F6E710B513460A4604461946FFF7A2
:10025000F0FF204610BD30B50B460146002020229D
:10026000012409E021FA02F59D4205D303FA02F5C3
:10027000491B04FA02F52844151EA2F10102F1DC23
:1002800030BD202A04DB203A00FA02F1002070473A
:100290009140C2F1200320FA03F3194390407047C4
:1002A000202A04DB203A21FA02F00021704721FACB
:1002B00002F3D040C2F12002914008431946704732
:1002C000064C074D06E0E06840F0010394E80700A3
:1002D00098471034AC42F6D3FFF762FFD41F0008F2
:1002E000F41F0008FEE70000014800F05BB80000C2
:1002F000B0000020014800F055B8000010010020B7
:1003000001681823CAB2103AB2FBF3F2054B6FF33F
:100310000901032A9B5CC36500D9091D8165084654
:1003200070470000B31F000810B5014600208B691C
:100330008A6A4FF0C07453B1B3F5005F15D072B143
:10034000012A0CD0022A0AD0032A09D104E01AB1EA
:10035000012A06D0022A03D1C96AC90100D50120A9
:1003600010BDC96AA142FAD010BD002AF7D0012AF7
:10037000F2D0022AF3D0032AF3D010BD70477047A1
:1003800090F83510022903D0802141650120704783
:10039000052180F835100068016821F00101016035
:1003A000002070472DE9F84304464FF00009CDF8CE
:1003B000009063484FF41651A56D0068B0FBF1F74B
:1003C0002E6894F85C10082000FA01F131420FD039
:1003D00021680A6852070BD50A6822F004020A60F5
:1003E00094F85C108840A860606D40F00100606582
:1003F00094F85C104FF0010808FA01F0304208D080
:1004000021684969090604D5A860606D40F00200C2
:10041000606594F85C1004208840304208D0216860
:100420000968890704D5A860606D40F00400606524
:1004300094F85C1010208840304218D02168096878
:10044000090714D5A86020680168490304D500682D
:10045000000308D5A16C07E00168C90503D4016851
:1004600021F008010160216C09B12046884794F809
:100470005C1020208840304231D021680968C906CC
:100480002DD5A86094F8350005282068016806D0AD
:10049000490347D5006800031DD4616C1CE021F0BE
:1004A000160101602068416921F080014161206CE2
:1004B00008B9A06C20B12068016821F00801016032
:1004C00094F85C103F208840A86084F8349084F849
:1004D0003580216D1FE0E16B09B120468847606DD2
:1004E00000282BD0606DC00714D0052084F835009B
:1004F0002068016821F0010101600098401C009013
:10050000B84203D820680068C007F6D184F8349058
:1005100084F83580E16C002910D001B02046BDE898
:10052000F04308470168C905D5D4016821F01001DE
:10053000016084F8349084F83580CCE7BDE8F88316
:100540000C0000202DE9F041044600F04DF906466C
:100550005CB1002584F83450022084F8350020680E
:10056000016821F0010101600DE00120BDE8F0818A
:1005700000F03AF9801B052805D92020606503208A
:1005800084F83500F2E720680068C007F0D12268DF
:10059000116820480140D4E901031843D4E9033627
:1005A0003343184363691843A3691843E369184345
:1005B000236A18430843616A042903D1D4E90B1361
:1005C00019430843106020684069666A20F00701FB
:1005D00030460E43012704280CD1A06A0643E06A86
:1005E00040B12046FFF7A0FE20B14020606584F8AE
:1005F0003570BAE7206846612046FFF781FE94F81F
:100600005C203F2191408160656584F83570002051
:10061000ACE700003F8010F070B5044600F0E4F84D
:100620000546601C02D004480078044400F0DCF861
:10063000401BA042FAD370BD000000202DE9F84F06
:1006400000224FF0010803254FF00F0E0B6808FA47
:1006500002F42340A34271D14E68012E05D0022E30
:1006600003D0112E01D0122E15D18668570005FA3D
:1006700007FC26EA0C06D1F80CC00CFA07FC4CEA81
:10068000060CC0F808C04668A6430C79C4F30014F1
:10069000944034434460C668570005FA07FC8C68F0
:1006A00026EA0C06BC403443C4604C68022C01D0DE
:1006B000122C13D1D40800EB8404A346D4F8209064
:1006C00054074FEAD46A0EFA0AF629EA06090E69B7
:1006D00006FA0AF646EA0906CBF8206004680E79A5
:1006E00024EA0C0406F00306BE40264306604C686C
:1006F000E40056D52E4C266846F4804626602468D1
:1007000022F0030604F4804400942A4C3444A446A6
:10071000D4F808489607370F0EFA07F6B443264E6A
:10072000B04201D1002615E0244EB04201D101268D
:1007300010E0234EB04202D102260BE031E0214E00
:10074000B04201D1032605E01F4EB04201D104267C
:1007500000E00726BE402643CCF808681B4E3468EC
:100760004F689C43FF0300D51C433460174E361D71
:1007700034684F689C43BF0300D51C433460134E5C
:10078000083634684F689C43FF0200D51C43346030
:100790000E4E0C3634684F689C43BF0200D51C4394
:1007A0003460521C102AFFF451AFBDE8F88F0000EE
:1007B0004438024000300140000002400004024082
:1007C00000080240000C024000100240003C0140C2
:1007D000426931EA020200D10904816170470AB11D
:1007E000816170470904FBE7014880687047000099
:1007F000000000200248816802781144816070473F
:10080000000000200B4810B5016841F40071016040
:10081000016841F480610160016841F48071016008
:10082000032000F06FF8002000F006F800F024F834
:10083000002010BD003C024070B50D4D04464FF441
:100840007A712878B1FBF0F00A490968B1FBF0F041
:1008500000F069FC48B9102C07D200222146501E36
:1008600000F030F800206C6070BD012070BD000009
:10087000000000200C0000200A4808B5016841F47F
:1008800080410160006800F4804000900548001F2E
:10089000016841F080510160006800F080500090D4
:1008A00008BD000044380240002809DB00F01F02A8
:1008B000012191404009800000F1E020C0F80011C2
:1008C00070470000F0B40E4B1B680C46C3F30223C4
:1008D000C3F10705042D00D90425191D072901D2EC
:1008E000002300E0DB1E012606FA05F1491E214027
:1008F00099409E40761E16403143F0BC01F0F0B99D
:100900000CED00E0064900F0070208684FF6FF030F
:10091000184040EA0220034A104308607047000074
:100920000CED00E00000FA052DE9F0470E46050049
:1009300065D0DFF81481D8F80000F7B200F00F009E
:10094000B04207D288F80070D8F8000000F00F001D
:10095000B04254D128683D4C810712D5400703D5D9
:10096000206840F4E05020602878000703D5206814
:1009700040F4604020602068A96820F0F00008433F
:1009800020602878C0072DD03049686808390128D0
:1009900012D0022813D0032811D009688907002932
:1009A0002DDA216821F0030101432160FFF71CFFCC
:1009B000814641F2883A0EE009688903EFE7096849
:1009C0008901ECE7FFF710FFA0EB0901514502D9BF
:1009D0000320BDE8F0872068696800F00C00B0EBE8
:1009E000810FEFD1D8F80010404601F00F01B1425D
:1009F00007D90770006800F00F00B04201D0012055
:100A0000E7E72878400705D52068E96820F4E0503A
:100A1000084320602878000706D52068296920F45B
:100A2000604040EAC100206000F038F82168084AC0
:100A3000C1F30311515CC8400649086006480068CC
:100A4000FFF7FAFE0020C4E7003C024008380240ED
:100A5000BB1F00080C0000200400002004480549CA
:100A600000680968044AC1F38221515CC84070479C
:100A70000C00002008380240CB1F0008044805493C
:100A800000680968044AC1F34231515CC8407047AC
:100A90000C00002008380240CB1F0008154810B594
:100AA000006810F00C02144813D01449042A0FD027
:100AB000082A0ED10F4C241F2268236802F03F023F
:100AC0005B0207D52068C0F38810A0FB010106E097
:100AD000084610BD2168C1F38811A1FB0001002365
:100AE000FFF776FB2168C1F30141491C4900B0FBC7
:100AF000F1F010BD083802400024F40040787D0178
:100B00002DE9F84F04006ED02078DFF83C93C00741
:100B1000A9F104054AD009F104000168C1F381017B
:100B2000012908D00068C0F3810002280AD1D9F851
:100B30000000400206D52868800337D56068002889
:100B4000E1D033E06068B0F5803F10D0B0F5A02F61
:100B5000286810D020F480302860286820F4802095
:100B600028606068A8B1FFF73FFE06460DE02868E0
:100B700040F48030F4E740F480202860F7E700BFBD
:100B8000FFF732FE801B642873D828688003F7D5EE
:100B90000CE0FFF729FE064605E000BFFFF724FE44
:100BA000801B6428F0D828688003F7D42078DFF809
:100BB0009C8280074FF0000A3ED5A348001D0168C3
:100BC00011F00C0F08D00068C0F3810002280BD18F
:100BD000D9F80000400207D42868800716D5E068DD
:100BE000012800D112E02BE1E068B8B10120C8F87B
:100BF0000000FFF7F9FD064605E000BFFFF7F4FD32
:100C0000801B0228C0D828688007F7D5286821698A
:100C100020F0F80040EAC10028600DE0C8F800A00C
:100C2000FFF7E2FD064604E0FFF7DEFD801B022829
:100C30001FD828688007F7D42078000722D5824E75
:100C400083486169703671B101210160FFF7CCFD05
:100C5000074604E0FFF7C8FDC01B022809D830682A
:100C60008007F7D50EE0C0F800A0FFF7BDFD0746EE
:100C700005E082E0FFF7B8FDC01B02287DD8306890
:100C80008007F7D42078400768D5DFF8BCB100278B
:100C90000BF13C0BDBF80000C0000BD4DBF80010BC
:100CA00041F08051CBF80010DBF80000012700F084
:100CB00080500090674E3068C00510D4306840F412
:100CC00080703060FFF790FD009005E0FFF78CFD2D
:100CD0000099401A022850D83068C005F6D55A4EFF
:100CE000A0686C3601280FD00528306810D020F09D
:100CF00001003060306820F004003060A068B8B1B6
:100D0000FFF772FD00900FE0306840F00100F4E75B
:100D100040F004003060F7E7FFF766FD0099411AE4
:100D200041F28830814266D830688007F4D50EE001
:100D3000FFF75AFD009007E0FFF756FD0099411AB2
:100D400041F28830814256D830688007F4D42FB100
:100D5000DBF8001021F08051CBF80010A069C8B377
:100D60003949091D0968C1F3810102294AD00228C5
:100D7000504607D0C8F8600000E03CE0FFF734FDC3
:100D800004463BE04746C8F86000FFF72DFD0646E5
:100D900005E000BFFFF728FD801B02282BD828683C
:100DA0008001F7D4D4E907010843A16A2A4A490817
:100DB00002EB0141626A41EA8211084394F82C1067
:100DC00040EA0161C9F8001001203866FFF70CFD08
:100DD000044606E036E000BFFFF706FD001B0228D0
:100DE00009D828688001F7D52CE000BFFFF7FCFC8C
:100DF000001B022802D90320BDE8F88F2868800173
:100E0000F4D41FE00128F7D0D9F80000E26900F41B
:100E10008001914214D1226A00F03F0191420FD12A
:100E200047F6C071626A0140914209D1A26A00F49A
:100E30004031914204D1E16A00F07060884201D0F3
:100E40000120D9E70020D7E70438024000004742DC
:100E5000800E4742007000400000FFFF70B50400A4
:100E600005D00025A56294F8510010B106E00120DC
:100E700070BD84F85050204600F030F8022084F80D
:100E800051002068016821F040010160D4E90101AE
:100E90000843D4E903121143084361690843218BD5
:100EA00001F400710843E1690843216A0843A16A1B
:100EB000084321680860A069042101EA1040616AC2
:100EC0000843216848602068C16921F40061C1615C
:100ED0006565012084F85100002070BD10B586B012
:100EE000044614216846FFF7ABF91349206888428D
:100EF00020D112480021026842F48052026000684A
:100F000000F4805005900D481438026842F0010248
:100F10000260006800F001000590E02000900220CF
:100F2000CDE901010320039005200490694604489F
:100F3000FFF784FB06B010BD00300140443802408A
:100F4000000002402DE9F84F044690F850000027B9
:100F50000A9E1D4692468B464FF0010901280ED08D
:100F6000012084F85000FFF73FFC804694F85100C0
:100F7000616801280CD0B1F5827F07D102E0022020
:100F8000BDE8F88FA16809B9042801D00227C2E0A2
:100F9000BBF1000F27D0BAF1000F24D01DB394F895
:100FA0005100042802D0052084F85100002060651B
:100FB000C4F838A0E587A587C4F830B0E586A586D3
:100FC0002064606420680168490603D4016841F028
:100FD00040010160E068B0F5006F606805D0E8B3DB
:100FE000012D46D07FE0012795E008B1012D39D1D0
:100FF000206B21680088C860206B801C2063E08E15
:10100000401EE0862EE02068816889070FD5E18EBA
:1010100069B1B9F1010F0AD1216B0988C160206B58
:10102000801C2063E08E401EE0864FF0000920689F
:101030008168C9070CD0E18F51B1C068A16B0880ED
:10104000A06B801CA063E08F401EE0874FF0010979
:10105000FFF7CAFBA0EB0800B04200E009E001D3B3
:10106000701C50D1E08E0028CDD1E08F0028CAD16D
:101070003FE0206B216800780873206B401C2063E0
:10108000E08E401EE0862EE02068816889070FD53B
:10109000E18E69B1B9F1010F0AD1216B09780173B1
:1010A000206B401C2063E08E401EE0864FF000095C
:1010B00020688168C9070CD0E18F51B1C068A16B6D
:1010C0000870A06B401CA063E08F401EE0874FF0CB
:1010D0000109FFF789FBA0EB0800B04202D3701CA6
:1010E00001D010E07EB1E08E0028CDD1E08F002845
:1010F000CAD142463146204600F07AFA28B101278B
:101100002020606507E0032705E0A06818B9206883
:10111000C16880680090012084F85100002084F8A4
:10112000500038462CE710B5401EB0F1807F01D347
:10113000012010BD4FF0E02460610F21601700F026
:10114000CFFD0020A06107202061002010BD704766
:1011500070B5026804461068D168536910F00F0F2B
:1011600052D003F0010501F490762E435FD0C20700
:1011700005D0CA0503D5E26B42F00102E2634207E3
:1011800005D5DA0703D0E26B42F00202E263820780
:1011900005D5DA0703D0E26B42F00402E2630207EE
:1011A00007D501F020022A4303D0E26B42F0080287
:1011B000E263E26B002A33D0800604D5880602D5AC
:1011C000204600F0F3FA20684069E16BC0F380101C
:1011D000090700D428B3204600F0DAFA20684169F4
:1011E00049061AD5416921F040014161606BA0B107
:1011F0001B490165606BFFF7C3F8002810D0606BD6
:10120000016DBDE870400847830610D58B060ED5EA
:101210002046BDE8704000F0C9BA2046FFF797FFAE
:1012200070BD2046FFF793FF0020E06370BD03060A
:1012300006D50B0604D52046BDE8704000F096BBED
:101240004006F3D54806F1D5D168204621F040018B
:10125000D160202184F8391000F006F970BD00003B
:101260008117000870B5040004D094F839000025F7
:1012700010B106E0012070BD84F83850204600F01F
:1012800023F8242084F839002068C16821F4005133
:10129000C160204600F0D6FA2068016921F490412F
:1012A00001612068416921F02A0141612068C1681B
:1012B00041F40051C160E563202084F8390084F8CE
:1012C0003A00002070BD00002DE9F04186B00646CE
:1012D00014216846FEF7B4FF2F493068884258D180
:1012E0002E480024016841F010010160006800F000
:1012F0001000059029481438016841F0020101608E
:101300000068694600F002000590C02000900220AD
:10131000CDE9010403200390072004902048FFF743
:101320008DF9214D1F484FF000672860C5E9017411
:101330004FF48068C5E903486C61AC61EC612C62D4
:1013400028466C62FFF7FEF808B1FFF718F87563DE
:10135000AE63154D134860357830E5E8020740204C
:10136000A5E81101104845F814496030AC61EC6102
:101370002C626C62FFF7E6F808B1FFF700F83563FE
:10138000002211462520AE63FFF79CFA2520FFF7C7
:101390008BFA06B0BDE8F0810010014044380240ED
:1013A0000004024040640240B000002070472DE974
:1013B000F843044690F839001F4616460D4620288B
:1013C00050D1B5B1AEB194F8380001284AD001200F
:1013D00084F838004FF00008C4F83C80212084F8DD
:1013E0003900FFF701FAA6848146E68484F8388044
:1013F00026E00120BDE8F883E08C401EE084A06870
:101400004B46B0F5805F4FF000024FF08001204660
:10141000009703D000F0DBFAE8B90DE000F0D7FA4E
:10142000C8B928882168C0F308004860206908B15D
:101430006D1C05E0AD1C03E0216815F8010B486048
:10144000E08C0028D8D14B4600224021204600974E
:1014500000F0BDFA08B10320CCE7202084F8390061
:101460000020C7E70220C5E77047FEE70D4808B532
:10147000016841F4800101600068002200F48000EE
:10148000009011463A20FFF71DFA3A20FFF70CFAB8
:10149000002211464620FFF715FABDE80840462015
:1014A000FFF702BA30380240F0B587B01421684621
:1014B000FEF7C6FE21480024016841F004010160E6
:1014C000016801F004010591016841F080010160AB
:1014D000016801F080010591016841F0010101609E
:1014E000016801F001010591016841F0020101600C
:1014F0000068012200F00200114E550305902946B4
:101500003046FFF76CF90F4F002210213846FFF7E5
:1015100066F900950125CDE90154694630460394EA
:10152000FFF78CF810200090CDE901546946384649
:101530000394FFF783F807B0F0BD00003038024095
:101540000008024000000240104810B50E4901603A
:101550004FF48271416000218160C1604FF40072DC
:101560000161C0E905120822C0E9072141628162D8
:101570000A21C162FFF772FC002803D0BDE81040C9
:10158000FEF7FDBE10BD0000003001401800002035
:101590000C4810B50A4901604FF4E1314160002167
:1015A00081600C22C160C0E904128161C161FFF752
:1015B00059FE002803D0BDE81040FEF7E0BE10BD84
:1015C0000010014070000020FEE7704770470000E7
:1015D00001B582B04FF47A700090012301AA02A9EC
:1015E0000248FFF7AFFC9DF804000EBD1800002074
:1015F00038B504461248134B0068B0FBF3F04FF4C3
:101600007A73584300906068B0F5827F0DD10B4625
:10161000009200228021204600F016F870B1606D23
:1016200040F020006065032038BD009830B1401EB6
:10163000009020688068C0430006F6D5002038BDC1
:101640000C00002000366E012DE9F0411D461746C2
:101650000E460446DDF8188008E0681C06D0FFF747
:10166000C3F8A0EB0800A8420BD255B120688068EF
:1016700036EA000030D00020B842EED10020BDE8AC
:10168000F0812068416821F0E00141606068B0F5B8
:10169000827F0BD1A068B0F5004F02D0B0F5806F0B
:1016A00004D12068016821F040010160A06AB0F512
:1016B000005F09D12068016821F4005101602068B1
:1016C000016841F400510160012084F851000020BC
:1016D00084F850000320D2E70120CDE77047FFF7E0
:1016E00089B8000030B593B030216846FEF7A8FDF8
:1016F00014210CA8FEF7A4FD18480025016841F04C
:1017000080510160006800F0805011901448016819
:1017100041F4404101600068022400F4404011900F
:1017200001200090000401908001CDE906400C20CA
:1017300008906020CDE9090404200B906846FFF76B
:10174000DFF90CA90F2081E83100E002CDE90F0597
:1017500003210CA8FFF7E8F813B030BD4038024071
:10176000007000400548016841F4700101600349C0
:101770004FF00060803908607047000088ED00E09D
:1017800010B5806B0021C185C184FFF7E0FC10BD5E
:101790000168CA6822F49072CA6001684A6922F03E
:1017A00001024A61202180F83A10704710B590F884
:1017B0003A10222901D0022010BD8168B1F5805F66
:1017C00011D00169002901681FD0496801F07F0329
:1017D000816A4A1C82620B70C18D491E0904090C82
:1017E000C18518D02BE00269816A002A026852681C
:1017F00005D0D2B20A80816A491C8162ECE7C2F34B
:1018000008020A80816A891CF7E74A68816A4B1CD2
:1018100083620A70E0E70168CA6822F02002CA60A9
:101820000168CA6822F48072CA6001684A6922F0BD
:1018300001024A61202180F83A10FFF7B7FD00202D
:1018400010BD00002DE9F041044600680169E2681E
:1018500021F44051114301612169A068E269084304
:101860006169114308432168CA6849F20C639A43CD
:101870000243CA6020684169A26921F440711143A2
:101880004161E069192764253226B0F5004F354AD9
:10189000354920684FF0000806D0884201D09042B8
:1018A00036D1FFF7EBF835E0884201D0904202D103
:1018B000FFF7E4F801E0FFF7D1F861684A18A0FBF0
:1018C000070148EB0803FEF783FC0146B0FBF5F087
:1018D0000201B1FBF5F06FF01803584301EB8000F3
:1018E00006EBC000B0FBF5F000F0F80002EB4002A0
:1018F000B1FBF5F0584301EB800006EBC000B0FBF4
:10190000F5F000F00700216810448860BDE8F08120
:10191000FFF7A4F861688B0F8A00A0FB0701FEF7B0
:1019200057FC0146B0FBF5F06FF01802504301EB95
:10193000800006EB0010B0FBF5F000F0F002B1FB08
:10194000F5F002EB0012B1FBF5F06FF0180358430D
:1019500001EB800006EB0010B0FBF5F000F00F008B
:10196000D1E70000001401400010014090F8391048
:10197000212901D0022070478168B1F5805F016A9A
:101980000BD04A1C0262026809785160C18C491E62
:101990000904090CC1840ED017E009880268C1F35C
:1019A0000801516001690029016A02D0491C0162E5
:1019B000ECE7891CFBE70168CA6822F08002CA6074
:1019C0000068C16841F04001C160002070472DE906
:1019D000F041984617460E460446069D1DE0681CD9
:1019E0001BD02DB1FEF700FFA0EB0800A84214D9D0
:1019F0002068C16821F4D071C1602068416921F07C
:101A000001014161202084F8390084F83A00002067
:101A100084F838000320BDE8F0812068006836EAC9
:101A2000000004D00020B842D9D00020F3E7012004
:101A3000F9E700000148FFF78BBB000070000020B1
:101A4000FEE7000070B5040300F0DEF800F086F851
:101A50000C4D0020C5F89002202005F52475FFF7F5
:101A6000B7FDC4F30740FFF7B3FDC4F30720FFF74A
:101A7000AFFDE0B2FFF7ACFD01202860BDE870408B
:101A800000F06CB800004042044910B50120C1F8D4
:101A9000900200F02FF80249088010BD000040427B
:101AA000100000202DE9F041114E07460020154698
:101AB0000C46C6F890020320FFF78AFDC4F30740E6
:101AC000FFF786FDC4F30720FFF782FDE0B2FFF7C2
:101AD0007FFD002405E0FF20FFF77AFD3855641CE8
:101AE000A4B2AC42F7D30120C6F89002BDE8F08161
:101AF0000000404270B50F4C0025C4F89052902071
:101B000004F52474FFF764FD0020FFF761FD002059
:101B1000FFF75EFD0020FFF75BFDFF20FFF758FD9C
:101B200045EA0025FF20FFF753FD284301212160EE
:101B300070BD00000000404210B5074C0020C4F802
:101B40009002052004F52474FFF742FDFF20FFF703
:101B50003FFD0121216010BD000040422DE91040F1
:101B6000FFF7EAFFC007FBD110BD00002DE9F05FD1
:101B7000C1F30B060F0BC6F5805488468246154606
:101B8000A24200D81446DFF87C9039038B464FF40C
:101B900080521C48FFF786FF002006E0321819F833
:101BA0000210FF2903D1401C80B2A042F6D3A0420C
:101BB00022D23846FFF746FF00204A4606E000BF23
:101BC0001AF800108319401CD15480B2A042F7D3F8
:101BD00059464FF480520B4800F026F8A5420FD02A
:101BE000281BA244A044002685B24FF480547F1CD9
:101BF000A542CAD82C46C8E7224641465046EBE7E4
:101C0000BDE8F09F7001002010B5064C0020C4F81C
:101C10009002062004F52474FFF7DAFC012020600E
:101C200010BD0000000040422DE9F0410746C8B257
:101C3000C0F580740E461546A24200D814464FF4F3
:101C4000807822463146384600F00EF8A54208D08A
:101C5000281B2744264485B24446A542F1D82C4689
:101C6000EFE7BDE8F08100002DE9F04115460C4694
:101C70000746FFF7C9FF114E0020C6F89002022068
:101C8000FFF7A6FCC4F30740FFF7A2FCC4F307204C
:101C9000FFF79EFCE0B2FFF79BFC002404E0385DF8
:101CA000FFF796FC641CA4B2AC42F8D30120C6F83E
:101CB0009002BDE8F041FFF751BF00000000404234
:101CC0000FB4054B10B503A9044A029800F028F898
:101CD00010BC5DF814FB0000751E00081400002005
:101CE0000907090E002804DB00F1E02080F8001449
:101CF000704700F00F0000F1E02080F8141D7047DD
:101D000002E008C8121F08C1002AFAD170477047C4
:101D1000002001E001C1121F002AFBD17047000022
:101D20002DE9FF4F89B09B460446002506E0252893
:101D30000BD05A460B999047641C6D1C20780028E4
:101D4000F5D10DB02846BDE8F08F0027B846012236
:101D5000474900E0074314F8013F203B02FA03F033
:101D60000842F7D120782E2819D114F8010F47F036
:101D700004072A280ED06FF02F022078A0F130013E
:101D800009290CD808EB880102EB410100EB01089E
:101D9000641CF2E70A98641C50F8048B0A902078BF
:101DA0000028CED0642808D0692806D075281ED017
:101DB0005A460B9990476D1C58E00A994FF00A0952
:101DC00001C90A91002802DA40422D2102E03905BA
:101DD00004D52B218DF82010012103E0F90704D050
:101DE0002021F7E78A4608AE0DE00021FAE70A99BC
:101DF0004FF00A0901C90A91F7E74946FEF72BFAA5
:101E0000303106F8011D0028F7D1ADEB060000F1D6
:101E10002009780701D44FF00108C84502DDA8EB7E
:101E2000090000E000208046002706E008A85A4686
:101E3000C05D0B9990476D1C7F1C5745F6DB04E095
:101E400030205A460B9990476D1CB8F10001A8F15B
:101E50000108F5DC05E016F8010B5A460B9990478E
:101E60006D1CB9F10001A9F10109F4DC641C65E7FE
:101E70000928010013B54FF6FF7301226946024895
:101E8000FFF795FA00981CBD7000002008B5FEF71A
:101E9000B9FCFFF727FCFFF707FBFFF7E7FAFFF7AF
:101EA00053FBFFF775FBFFF7EFFD4FF4FA744FF4A8
:101EB00000561F4F4EF615750FE01EA0FFF700FFEE
:101EC0002046FEF7A9FB21A0FFF7FAFE2046FEF709
:101ED000A3FB31463846FEF77BFCFFF70BFEA8421A
:101EE000EBD11EA0FFF7ECFE032200216846FFF7AE
:101EF000D9FD9DF80100012804D0032200211B48D0
:101F0000FFF734FE9DF8021019A0FFF7D9FE9DF8E7
:101F10000200401C8DF8020017A0FFF7D1FE03223B
:101F200000216846FFF722FE1AA0FFF7C9FEFEE770
:101F30000008024057323551333220436865636BE5
:101F4000204661696C6564210D0A0000506C656172
:101F5000736520436865636B210D0A005732355164
:101F60003332204F4B210D0A20000000B01F000823
:101F700025640D0A000000000D0A5374617274207C
:101F80005772697465205732355131362E2E2E2EF8
:101F90000D0A000057323551313620577269746589
:101FA0002046696E6973686564210D0A00000000AF
:101FB00000010200061016000610160000000000C6
:101FC00000000001020304060708090000000001E8
:101FD00002030400F41F00080000002018000000A5
:101FE000001D00080C2000081800002058150000F3
:101FF000101D00080100000010000000000000009B
:0C2000000024F40015EF000000000000B8
:040000050800019955
:00000001FF
