:020000040800F2
:10000000C8100020AD0100081B1E0008371A0008A8
:10001000191E0008330300084140000800000000DA
:10002000000000000000000000000000A5290008FA
:100030003503000800000000971F0008B1290008E0
:10004000C7010008C7010008C7010008C701000870
:10005000C7010008C7010008C7010008C701000860
:10006000C7010008C7010008C7010008C701000850
:10007000C7010008C7010008C7010008C701000840
:10008000C7010008C7010008C70100080000000000
:10009000000000000000000000000000C701000890
:1000A000C7010008C7010008C7010008C701000810
:1000B000C7010008C7010008C7010008C701000800
:1000C000C7010008C7010008C7010008C7010008F0
:1000D000C7010008C7010008C701000800000000B0
:1000E000C7010008C7010008C701000800000000A0
:1000F000000000000000000000000000C701000830
:1001000000000000C7010008C7010008C70100087F
:1001100000000000000000000000000000000000DF
:10012000C7010008C7010008C7010008C70100088F
:10013000C7010008000000000000000000000000EF
:100140000000000000000000000000001D1E00086C
:10015000C7010008C7010008C7010008C70100085F
:10016000C7010008C70100080000000000000000EF
:10017000000000000000000000000000000000007F
:1001800000000000C701000800000000000000009F
:10019000C7010008C7010008DFF80CD000F08CF898
:1001A000004800470D460008C81000200648804758
:1001B00006480047FEE7FEE7FEE7FEE7FEE7FEE74C
:1001C000FEE7FEE7FEE7FEE7352A00089901000892
:1001D0002DE9F05F0546002092469B46884606467C
:1001E000814640241BE0284641464746224600F00F
:1001F00053F853465A46C01A914110D31146184637
:10020000224600F03AF82D1A67EB01084F462246C5
:100210000120002100F031F817EB00094E41201EAB
:10022000A4F10104DFDC484631462A464346BDE8D6
:10023000F09F40EA01039B0703D009E008C9121FA1
:1002400008C0042AFAD203E011F8013B00F8013B90
:10025000521EF9D27047D2B201E000F8012B491EBC
:10026000FBD270470022F6E710B513460A46044653
:100270001946FFF7F0FF204610BD202A04DB203A84
:1002800000FA02F1002070479140C2F1200320FAE9
:1002900003F3194390407047202A04DB203A21FAE7
:1002A00002F00021704721FA02F3D040C2F120028F
:1002B0009140084319467047064C074D06E0E06838
:1002C00040F0010394E8070098471034AC42F6D39D
:1002D000FFF766FFC8460008E846000870B58C18AE
:1002E00010F8015B15F0070301D110F8013B2A114A
:1002F00006D110F8012B03E010F8016B01F8016B37
:100300005B1EF9D12B0705D40023521E0DD401F832
:10031000013BFAE710F8013BCB1A921C03E013F8FB
:10032000015B01F8015B521EF9D5A142D8D3002030
:1003300070BDFEE77047704770B5044600F0DEF808
:100340000546601C02D004480078044400F0D6F84A
:10035000401BA042FAD370BD700000202DE9F84F79
:1003600000224FF0010803254FF00F0E0B6808FA2A
:1003700002F42340A34271D14E68012E05D0022E13
:1003800003D0112E01D0122E15D18668570005FA20
:1003900007FC26EA0C06D1F80CC00CFA07FC4CEA64
:1003A000060CC0F808C04668A6430C79C4F30014D4
:1003B000944034434460C668570005FA07FC8C68D3
:1003C00026EA0C06BC403443C4604C68022C01D0C1
:1003D000122C13D1D40800EB8404A346D4F8209047
:1003E00054074FEAD46A0EFA0AF629EA06090E699A
:1003F00006FA0AF646EA0906CBF8206004680E7988
:1004000024EA0C0406F00306BE40264306604C684E
:10041000E40056D52E4C266846F4804626602468B3
:1004200022F0030604F4804400942A4C3444A44689
:10043000D4F808489607370F0EFA07F6B443264E4D
:10044000B04201D1002615E0244EB04201D1012670
:1004500010E0234EB04202D102260BE031E0214EE3
:10046000B04201D1032605E01F4EB04201D104265F
:1004700000E00726BE402643CCF808681B4E3468CF
:100480004F689C43FF0300D51C433460174E361D54
:1004900034684F689C43BF0300D51C433460134E3F
:1004A000083634684F689C43FF0200D51C43346013
:1004B0000E4E0C3634684F689C43BF0200D51C4377
:1004C0003460521C102AFFF451AFBDE8F88F0000D1
:1004D0004438024000300140000002400004024065
:1004E00000080240000C024000100240003C0140A5
:1004F0000AB1816170470904FBE700000148806888
:1005000070470000700000200248816802781144A2
:1005100081607047700000200B4810B5016841F4FD
:1005200000710160016841F480610160016841F47B
:1005300080710160032000F06FF8002000F006F8E1
:1005400000F024F8002010BD003C024070B50D4DB5
:1005500004464FF47A712878B1FBF0F00A49096833
:10056000B1FBF0F001F053FA48B9102C07D2002289
:100570002146501E00F030F800206C6070BD012054
:1005800070BD0000700000207C0000200A4808B503
:10059000016841F480410160006800F480400090EF
:1005A0000548001F016841F080510160006800F0BB
:1005B0008050009008BD000044380240002809DB4C
:1005C00000F01F02012191404009800000F1E0206D
:1005D000C0F8001170470000F0B40E4B1B680C46C9
:1005E000C3F30223C3F10705042D00D90425191D07
:1005F000072901D2002300E0DB1E012606FA05F1DF
:10060000491E214099409E40761E16403143F0BC61
:1006100003F0B4BF0CED00E0064900F007020868E3
:100620004FF6FF03184040EA0220034A10430860D7
:10063000704700000CED00E00000FA05704700680C
:10064000416200207047F0B50368586A39B19C6A6E
:100650004FF4827600EB144400204D1E0AE040EA7D
:10066000024098620FE006EB8007DF59401C04EB64
:100670001744C0B2A842F6D344EA02404FF4807255
:1006800002EB810158500020F0BDD0F8040402F0C4
:10069000F2BBC1EBC10200EB8202D0F80404926C01
:1006A00002F05DBBC1EBC10200EB8202D0F8040492
:1006B000D2F8082202F0A8BBD0F8040402F0DDBB97
:1006C00070B504460B0601F00F00C0EBC00104EB4F
:1006D00081014FF001024FF0000503D581F83D2064
:1006E0003C3103E081F8FD5101F5FE71087094F88A
:1006F000BC03012808D084F8BC23206803F038F834
:1007000084F8BC53002070BD022070BD70B5044653
:1007100001F00F006268904201D9012070BD0B0604
:1007200001F00F01C1EBC10104EB81014FF00102A7
:100730004FF0000503D581F83D203C3103E081F8FE
:10074000FD5101F5FE718D70087094F8BC0301280D
:1007500008D084F8BC23206803F004FA84F8BC5362
:10076000002070BD022070BD10B5044690F8BC0397
:1007700001280AD0012084F8BC03080607D501F03F
:100780000F01206803F050FB04E0022010BD206838
:1007900003F03AFB002084F8BC0310BD01F00F0108
:1007A000C1EBC10100EB8100D0F8140270472DE9C4
:1007B000F04104460F0601F00F00C0EBC00104EB4E
:1007C00081014FF001064FF0000503D581F83D602F
:1007D0003C3103E081F8FD5101F5FE7108708A603B
:1007E000CB704A7802B1C880022B00D10D7194F809
:1007F000BC03012809D084F8BC63206802F014FF10
:10080000284684F8BC53BDE8F0810220FBE770B5B0
:100810000C4601F00F05C5EBC50100EB8101C1F8E5
:100820001032C1F808220023C1F8143281F8FD31DA
:1008300081F8FC51036901F5FE71012B00D10A61B9
:100840002207027C006803D003F0E4F9002070BDA9
:1008500003F0D0F8FAE770B504460D4601F00F003A
:100860006168884201D9012070BD29064FF0000659
:100870004FF0010207D5C0EBC00104EB810181F804
:100880003D203C3107E0C5EBC50104EB810181F857
:10089000FD6101F5FE718A70087094F8BC030128AF
:1008A00007D084F8BC23206803F088F9280702D019
:1008B00007E0022070BD217C04F57172206803F00E
:1008C00025F984F8BC63002070BD70B50C4601F0BA
:1008D0000F05C5EBC50100EB81010B658A640023A0
:1008E0004B65012381F83D3001F83C5F0369012B22
:1008F00000D10A612207027C006803D003F08AF964
:10090000002070BD03F076F8FAE700002DE9FC5FE7
:1009100005680446284603F0A6FA00287ED1206820
:1009200003F0CDFA002879D0206803F0C8FA8007D8
:1009300004D52168486900F002004861206803F08E
:10094000BEFAC10604F57170009034D52068816943
:1009500021F0100181612F6A07F00F00C0EBC00089
:1009600004EB8006C7F3434006F5FE76022802D06A
:10097000062811D01AE047F6F070074216D0C7F3E8
:100980000A1217462846F16803F09DFAF0683844C9
:10099000F060B069384408E008222846009903F066
:1009A00092FAB069C7F30A110844B06120688169FE
:1009B00041F010018161206803F081FA00034FF0DB
:1009C000010A4FF0080B5BD50026206803F056FAA9
:1009D0000746DFF8689351E0F8074DD0F1B2206880
:1009E00003F065FA8046C00707D005EB4611C1F851
:1009F00008AB3146204601F017FA5FEA087022D5AD
:100A000005EB4611C1F808BB2068016C00EB4610ED
:100A10000191D0F8082B494507D900E08BE111047A
:100A200003D54FF40041C0F8081B204600F073FACC
:100A30000198484507D92069012804D1206801217F
:100A4000009A03F063F85FEAC86004D505EB46112D
:100A50001020C1F8080B5FEA886004D505EB461149
:100A60002020C1F8080B5FEA884005D505EB461049
:100A70004FF40051C0F8081B7F08761C002FABD143
:100A8000206803F01CFA40034FF000095CD5206891
:100A900003F0EDF90746002654E0F80750D0F1B214
:100AA000206803F0F2F98046C00723D006F00F0259
:100AB0000AFA02F0D5F834288243C5F8342805EB49
:100AC0004610C0F808A9206901280FD1C6EBC6005E
:100AD00004EB8000D0E911211144816436B9206D06
:100AE00020B920680121009A03F010F8F1B22046E5
:100AF000FFF7CFFD5FEA087003D505EB4611C1F89B
:100B000008B95FEAC86004D505EB46111020C1F8AA
:100B100008095FEA486004D505EB46114020C1F89A
:100B200008095FEA887004D505EB46110220C1F878
:100B300008095FEA086003D53146204601F0DAF97A
:100B40007F08761C002FA8D1206803F0B8F9002890
:100B500011DAD5F8040820F00100C5F8040894F86B
:100B6000F403012829D0204600F0B9F92068416932
:100B700001F000414161206803F0A1F900050BD5A7
:100B8000D5F80808C00702D0204600F0EDF920682B
:100B9000416901F400614161206803F090F9C004EB
:100BA00068D5D5F8040820F00100C5F80408102124
:100BB000206803F039F9002127E084F8F49300213C
:100BC0002046FFF73BFDD1E705EB41104FF67F32A2
:100BD000C0F80829D0F8003923F40013C0F8003910
:100BE000D0F8003943F00063C0F80039C0F8082B92
:100BF000D0F8002B22F40012C0F8002BD0F8002B04
:100C000042F00062C0F8002B491C60688842DBD8C3
:100C1000D5F81C0840F00110C5F81C08206B60B125
:100C2000D5F8840840F00B00C5F88408D5F84408CE
:100C300040F00B00C5F844080CE0D5F8141842F257
:100C40002B000143C5F81418D5F8100840F00B002C
:100C5000C5F81008D5F8000820F4FE60C5F80008B3
:100C6000217C2068009A02F051FF2068416901F45C
:100C700080514161206803F022F9800415D5206875
:100C800002F012FD206803F0E1F8E06000F01EFAC7
:100C90000146227B206803F04DF9204600F00CF954
:100CA0002068416901F400514161206803F007F9AF
:100CB000000707D5204600F016F92068416901F0C9
:100CC00008014161206803F0FAF8C00208D500214C
:100CD000204600F035F82068416901F48011416137
:100CE000206803F0ECF8800208D50021204600F0CF
:100CF0002BF82068416901F400114161206803F07C
:100D0000DEF8400007D52046FFF7BFFC20684169A8
:100D100001F080414161206803F0D1F840070AD515
:100D200020684568680702D52046FFF7C5FC2068A3
:100D3000416829434160BDE8FC9F00000A30544FE0
:100D4000D0F8040402F0F2B8D0F8040402F0F0B8CD
:100D50002DE9F0418AB0040005D094F8BD0326685F
:100D6000002520B108E001200AB0BDE8F08184F838
:100D7000BC53204600F05EF8032084F8BD03F06BFE
:100D8000C00500D42561206802F02EFE04F1100198
:100D9000282288466846FFF74CFA94E80F0002F0D4
:100DA00091FC0226C8BB0021206803F09AF80020BD
:100DB00001270EE0C0EBC00104EB810181F83D701A
:100DC00001F83C0FC880CD708D60CD60401CC0B272
:100DD0004D6161688142EDD8002011E0C0EBC00197
:100DE00004EB810181F8FD5181F8FC0181F8FF518C
:100DF000C1F80452C1F80852401CC0B2C1F81052E8
:100E000061688142EAD8282241466846FFF711FA14
:100E100094E80F0002F02EFD10B184F8BD63A2E744
:100E200084F8385084F8BD73206802F015FD002066
:100E30009AE7000010B586B0044614216846FFF713
:100E400011FA2068B0F1A04F2FD119480021026893
:100E500042F001020260006800F0010005904FF4CA
:100E6000C05000900220CDE90101032003900A2028
:100E7000049069460F48FFF771FA0D48001D01689C
:100E800041F0800101600A481430016841F480415A
:100E900001600068002200F4804005901146432064
:100EA000FFF79AFB4320FFF789FB06B010BD000057
:100EB000303802400000024070B50446C068012589
:100EC000022801D0FFF737FA2946D4F8040402F0CB
:100ED00085F8D4F80404BDE8704002F040B8D0F8BA
:100EE000040402F065B8D0F8040402F06BB810B541
:100EF000044690F8BC0301280BD0012084F8BC0301
:100F000084F83810206803F003F8002084F8BC034C
:100F100010BD022010BDD0F8042400F571711046F8
:100F200002F068B810B50446006894F8BC130129B3
:100F300006D0012184F8BC13A16A012902D008E07F
:100F4000022010BDA169012903D0816B41F48031D9
:100F50008163206802F052FF206802F06FFC0020DD
:100F600084F8BC0310BD000010B50446D0F804049A
:100F700002F082F82068D0F8001E41F00101C0F8AC
:100F8000001E206A002804D00248016841F00601D2
:100F9000016010BD10ED00E02DE9F0470E460500A0
:100FA00065D0DFF81481D8F80000F7B200F00F0028
:100FB000B04207D288F80070D8F8000000F00F00A7
:100FC000B04254D128683D4C810712D5400703D563
:100FD000206840F4E05020602878000703D520689E
:100FE00040F4604020602068A96820F0F0000843C9
:100FF00020602878C0072DD030496868083901285A
:1010000012D0022813D0032811D0096889070029BB
:101010002DDA216821F0030101432160FFF76EFA08
:10102000814641F2883A0EE009688903EFE70968D2
:101030008901ECE7FFF762FAA0EB0901514502D9FB
:101040000320BDE8F0872068696800F00C00B0EB71
:10105000810FEFD1D8F80010404601F00F01B142E6
:1010600007D90770006800F00F00B04201D00120DE
:10107000E7E72878400705D52068E96820F4E050C4
:10108000084320602878000706D52068296920F4E5
:10109000604040EAC100206000F01EF82168084A64
:1010A000C1F30311515CC840064908600648006856
:1010B000FFF74CFA0020C4E7003C02400838024029
:1010C000B84600087C000020740000200148006839
:1010D000704700007C000020154810B5006810F033
:1010E0000C02144813D01449042A0FD0082A0ED138
:1010F0000F4C241F2268236802F03F025B0207D5D1
:101100002068C0F38810A0FB010106E0084610BD6E
:101110002168C1F38811A1FB00010023FFF758F8F3
:101120002168C1F30141491C4900B0FBF1F010BD39
:10113000083802400024F40040787D012DE9F84F82
:1011400004006ED02078DFF83C93C007A9F10405B5
:101150004AD009F104000168C1F38101012908D0D6
:101160000068C0F3810002280AD1D9F800004002CB
:1011700006D52868800337D560680028E1D033E0C1
:101180006068B0F5803F10D0B0F5A02F286810D06F
:1011900020F480302860286820F48020286060686F
:1011A000A8B1FFF7ABF906460DE0286840F480309F
:1011B000F4E740F480202860F7E700BFFFF79EF9CE
:1011C000801B642873D828688003F7D50CE0FFF7EC
:1011D00095F9064605E000BFFFF790F9801B6428EB
:1011E000F0D828688003F7D42078DFF89C82800745
:1011F0004FF0000A3ED5A348001D016811F00C0F06
:1012000008D00068C0F3810002280BD1D9F8000093
:10121000400207D42868800716D5E068012800D16D
:1012200012E02BE1E068B8B10120C8F80000FFF738
:1012300065F9064605E000BFFFF760F9801B02284C
:10124000C0D828688007F7D52868216920F0F80001
:1012500040EAC10028600DE0C8F800A0FFF74EF991
:10126000064604E0FFF74AF9801B02281FD82868C9
:101270008007F7D42078000722D5824E8348616921
:10128000703671B101210160FFF738F9074604E0BB
:10129000FFF734F9C01B022809D830688007F7D55A
:1012A0000EE0C0F800A0FFF729F9074605E082E04C
:1012B000FFF724F9C01B02287DD830688007F7D4D7
:1012C0002078400768D5DFF8BCB100270BF13C0B54
:1012D000DBF80000C0000BD4DBF8001041F08051B7
:1012E000CBF80010DBF80000012700F080500090E0
:1012F000674E3068C00510D4306840F480703060AC
:10130000FFF7FCF8009005E0FFF7F8F80099401AA5
:10131000022850D83068C005F6D55A4EA0686C3601
:1013200001280FD00528306810D020F0010030606F
:10133000306820F004003060A068B8B1FFF7DEF834
:1013400000900FE0306840F00100F4E740F0040046
:101350003060F7E7FFF7D2F80099411A41F2883080
:10136000814266D830688007F4D50EE0FFF7C6F8F2
:10137000009007E0FFF7C2F80099411A41F2883067
:10138000814256D830688007F4D42FB1DBF80010C2
:1013900021F08051CBF80010A069C8B33949091D6C
:1013A0000968C1F3810102294AD00228504607D0BA
:1013B000C8F8600000E03CE0FFF7A0F804463BE01E
:1013C0004746C8F86000FFF799F8064605E000BFF9
:1013D000FFF794F8801B02282BD828688001F7D4E7
:1013E000D4E907010843A16A2A4A490802EB0141EE
:1013F000626A41EA8211084394F82C1040EA0161C4
:10140000C9F8001001203866FFF778F8044606E0B6
:1014100036E000BFFFF772F8001B022809D82868E1
:101420008001F7D52CE000BFFFF768F8001B022809
:1014300002D90320BDE8F88F28688001F4D41FE0AA
:101440000128F7D0D9F80000E26900F48001914248
:1014500014D1226A00F03F0191420FD147F6C071CA
:10146000626A0140914209D1A26A00F4403191427E
:1014700004D1E16A00F07060884201D00120D9E710
:101480000020D7E70438024000004742800E474260
:10149000007000400000FFFF70B5040005D000257B
:1014A000A56294F8510010B106E0012070BD84F8E7
:1014B0005050204600F030F8022084F85100206897
:1014C000016821F040010160D4E901010843D4E939
:1014D00003121143084361690843218B01F4007131
:1014E0000843E1690843216A0843A16A0843216867
:1014F0000860A069042101EA1040616A084321687C
:1015000048602068C16921F40061C16165650120FE
:1015100084F85100002070BD10B586B00446142137
:101520006846FEF79FFE13492068884220D1124882
:101530000021026842F480520260006800F480508A
:1015400005900D481438026842F0010202600068FC
:1015500000F001000590E02000900220CDE901019B
:10156000032003900520049069460448FEF7F6FE28
:1015700006B010BD00300140443802400000024077
:101580002DE9F84F044640680025984616460F4658
:101590004FF0040BB0F5827F01D1A06888B194F8B8
:1015A0005000012818D0012084F85000FEF7A6FF53
:1015B000814694F851004FF0000A01280ED0022510
:1015C0007DE084F851B013460A462046CDF80080ED
:1015D00000F02CF9BDE8F88F0220FBE7002F6DD05A
:1015E000002E6BD084F851B0C4F854A0A763A6872E
:1015F000E687C4F830A0A4F834A0A4F836A0C4F854
:1016000040A0C4F844A0A068B0F5004F04D1206801
:10161000016821F48041016020680168490603D413
:10162000016841F040010160E068D8B139E020680C
:101630008168C90709D0007BA16B0870A06B401CB2
:10164000A063E08F401EE0870CE0FEF757FFA0EBA1
:101650000901414503D3B8F1FF3F03D036E0B8F1AB
:10166000000F33D0E08F0028E1D11DE020688168B1
:10167000C90709D0C068A16B0880A06B801CA0635B
:10168000E08F401EE0870CE0FEF738FFA0EB090179
:10169000414503D3B8F1FF3F03D017E0B8F1000F85
:1016A00014D0E08F0028E1D14A464146204601F09F
:1016B000ADF808B120206065606D00B10125012002
:1016C00084F8510084F850A0284683E70325F6E704
:1016D0002DE9F84F044690F8500000271D461646A5
:1016E000894601280DD04FF0010B84F850B0FEF769
:1016F00005FF804694F85100BA46012804D002271D
:101700008EE00220BDE8F88FB9F1000F7DD0002EE9
:101710007BD0032084F85100C4F854A0C4F8309062
:10172000A686E686C4F838A0A4F83CA0A4F83EA09B
:10173000C4F844A0C4F840A0A068B0F5004F04D19C
:101740002068016841F48041016020680168490611
:1017500003D4016841F040010160E068B0F5006F1A
:10176000606803D030B3012E24D040E008B1012ED0
:101770001CD1206B21680088C86006E02068816861
:10178000890709D5216B0988C160206B801C206303
:10179000E08E401EE08609E0FEF7B0FEA0EB0800F8
:1017A000A84202D3681C01D031E07DB3E08E00284E
:1017B000E4D11FE0206B21680078087306E0206800
:1017C0008168890709D5216B09780173206B401C5A
:1017D0002063E08E401EE08609E0FEF78FFEA0EB5E
:1017E0000800A84202D3681C01D010E075B1E08E59
:1017F0000028E4D142462946204601F035F808B1D8
:1018000020206065A06820B107E008E0FFE703271B
:1018100006E02068C16880680090606D00B1012713
:1018200084F851B084F850A038466BE72DE9F84FA2
:10183000044690F8500000270A9E1D4692468B46AB
:101840004FF0010901280ED0012084F85000FEF766
:1018500055FE804694F85100616801280CD0B1F51E
:10186000827F07D102E00220BDE8F88FA16809B9A4
:10187000042801D00227C2E0BBF1000F27D0BAF143
:10188000000F24D01DB394F85100042802D0052085
:1018900084F8510000206065C4F838A0E587A5876A
:1018A000C4F830B0E586A5862064606420680168CD
:1018B000490603D4016841F040010160E068B0F5D9
:1018C000006F606805D0E8B3012D46D07FE00127A6
:1018D00095E008B1012D39D1206B21680088C860DE
:1018E000206B801C2063E08E401EE0862EE0206886
:1018F000816889070FD5E18E69B1B9F1010F0AD16D
:10190000216B0988C160206B801C2063E08E401E23
:10191000E0864FF0000920688168C9070CD0E18F8C
:1019200051B1C068A16B0880A06B801CA063E08FE0
:10193000401EE0874FF00109FEF7E0FDA0EB080034
:10194000B04200E009E001D3701C50D1E08E0028C5
:10195000CDD1E08F0028CAD13FE0206B216800780C
:101960000873206B401C2063E08E401EE0862EE052
:101970002068816889070FD5E18E69B1B9F1010F3F
:101980000AD1216B09780173206B401C2063E08E23
:10199000401EE0864FF0000920688168C9070CD01E
:1019A000E18F51B1C068A16B0870A06B401CA063AF
:1019B000E08F401EE0874FF00109FEF79FFDA0EB8E
:1019C0000800B04202D3701C01D010E07EB1E08E5E
:1019D0000028CDD1E08F0028CAD1424631462046AA
:1019E00000F042FF28B101272020606507E00327AF
:1019F00005E0A06818B92068C168806800900120DF
:101A000084F85100002084F8500038462CE710B5C7
:101A1000401EB0F1807F01D3012010BD4FF0E024C3
:101A200060610F21601702F0A9FD0020A06107206E
:101A30002061002010BDFEE7F0B500230A24302508
:101A400037261F4611E000BFB4EB107F02D905EB2B
:101A5000107C01E006EB107C01F813C001EB430C95
:101A600000015B1C8CF80170DBB29342ECD3F0BD3B
:101A700070B5D0F8BC42054604F58051087F38B9EE
:101A8000886928B1607A18B90121284601F0E2FA84
:101A90008121284601F0DEFA607A022809D18121ED
:101AA000284601F0D7FA2846BDE87040012101F030
:101AB000D1BA70BD70B5D0F8BC42064604F5805569
:101AC000012168696863A869A863304601F0EAF9F2
:101AD0001F280AD126492869884206D1697F012931
:101AE00003D8A87F08B1102808D9697F20230522D0
:101AF000304600F095FD022060720AE041F21F00BE
:101B00002218304600F092FA0028207A08DA0528D8
:101B100004D03046BDE87040FFF7AABF012120E0A5
:101B2000022823D0012821D003281FD0E568BDB1A9
:101B300004F11002D6F8BC42304604F580518B699E
:101B4000AB4200D32B468E6B751B8D63002581F84D
:101B50003C5004212172BDE87040812101F095BA0A
:101B600000213046BDE8704000F0A0B870BD000014
:101B70005553424310B50446D0F8BC02407A0228BF
:101B800009D0090611D501280FD02046BDE8104024
:101B9000012100F08BB88121204601F05BFA20463C
:101BA000BDE81040012101F055BA10BD10B5D0F8C4
:101BB000BC220446107A022805D0032801D004284C
:101BC00011D100210AE041F21D00815C801C024419
:101BD000204600F02BFA002805DA01212046BDE856
:101BE000104000F063B810BD10B5D0F8BC22044618
:101BF000107A88B1012814D141F21D00815C801C4B
:101C00000244204600F012FA00280ADA2046BDE815
:101C10001040012100F04AB82046BDE81040FFF70F
:101C200049BF10BDD0F8BC0200210172704770B5E9
:101C3000D0F8BC4205460020207204F58051607245
:101C400081F8610001F8600F8870D5F8C002016862
:101C5000002088470121284601F01BF981212846F0
:101C600001F017F941F2100022182846BDE8704033
:101C70001F23012101F06AB970B5D0F8BC420546B6
:101C800000202072012060728121284601F055F861
:101C90000121284601F051F841F21000221828468F
:101CA000BDE870401F23012101F050B970B5D0F894
:101CB000BC42054604F580520B48106382F83C1084
:101CC0000020207241F2300022180D238121284685
:101CD00001F0DBF941F2100022182846BDE87040FF
:101CE0001F23012101F032B955534253F0B587B09B
:101CF00014216846FEF7B6FA1D480024016841F039
:101D000004010160016801F004010591016841F0DE
:101D100080010160016801F080010591016841F0D6
:101D2000010101600068134E00F001004FF40055FE
:101D30000590002229463046FEF7DAFB0E4F0022BE
:101D400010213846FEF7D4FB00950125CDE901545A
:101D5000694630460394FEF701FB10200090CDE960
:101D60000154694638460394FEF7F8FA07B0F0BD0F
:101D7000303802400008024000000240104810B510
:101D80000E4901604FF48271416000218160C160A1
:101D90004FF400720161C0E905122822C0E9072151
:101DA000416281620A21C162FFF776FB002803D0FD
:101DB000BDE81040FEF7BFBA10BD00000030014082
:101DC0007001002010B500220F49104800F09BFF61
:101DD00008B1FEF7B0FA0E490C4801F04FFA08B10D
:101DE000FEF7A9FA0B49094801F0C5F908B1FEF759
:101DF000A2FA064801F0BCFA002803D0BDE8104062
:101E0000FEF799BA10BD000000000020C8010020B4
:101E10008400002050000020FEE770470148FEF7D4
:101E200075BD0000980400202DE9F04103680D46BF
:101E300004461E6C03EB4511D1F8080BD4F810E0F2
:101E40004FF400474FF0200C04F57172BEF1010F02
:101E500009D0DFF898E0764539D1020432D500BFC9
:101E6000C1F8087B3FE0224B5FEA007E04D59E422A
:101E700039D90004F4D436E05FEA806E02D5C1F8A7
:101E800008CB30E010F0280F2DD19E4201D900047C
:101E9000E6D4C5EBC50004EB8000D1F8101BD0F8E8
:101EA0000432C1F31201591AC0F81412D0F8081202
:101EB0001944C0F8081295B9D4F8100278B9012174
:101EC00020680AE080060AD5C1F808CB07E035B9DA
:101ED000D4F8100218B90021184601F017FEE9B233
:101EE0002046FEF7DFFB0020BDE8F0810A31544FA9
:101EF0000A30544F2DE9F84F0E46C1EBC60100EBF6
:101F0000810481460568D4E914103C34884202D922
:101F10000120BDE8F88F081AA168814200D2084666
:101F2000C01C870805EB46181BE000BFA0EB010AA8
:101F3000A068504500D282460AF10300870899F84C
:101F4000100000901FFA8AF3F2B22846E16802F00E
:101F500065F8E16801EB0A00E060A16901EB0A00A5
:101F6000A061D8F8180980B2B84205D3D4E90501B8
:101F7000814201D20028D9D1D4E90501884208D88C
:101F800006F00F0101208840D5F834188143C5F8C8
:101F900034180020BDE7704710B5D0F8BC421A4491
:101FA00004F58054A36E9A4206D92123052200F03D
:101FB00037FB4FF0FF3010BD002010BD70B5054657
:101FC000D0F8BC02134600F580524FF0FF349669FA
:101FD00076B15E78F60714D0997861B180290DD07A
:101FE000517F24230522284600F01AFB204670BDAD
:101FF000517F2023F6E706220A490FE008220A490A
:102000000CE0D5F8C02201EBC1011B79D26902EBCB
:1020100081010A79521D934200D81A4600F029FB2B
:10202000002070BD260100202C0100202DE9F04782
:1020300013780025D0F8BC424FF0FF364FF002086D
:10204000252B74D00FDC1A2B77D005DC13B3032BB0
:1020500042D0122B17D143E01B2B45D01E2B5FD053
:10206000232B10D184E05A2B76D006DC282B6ED09F
:102070002A2B6DD02F2B06D196E09E2B69D0A82B52
:1020800068D0AA2B67D02023052200F0C9FA84F873
:1020900009801EE0074604F580508846816921B119
:1020A000417F20230522384683E090F862004FF0FC
:1020B0000509022805D0D7F8C00281684046884744
:1020C00038B33A2302224146384600F0A9FA84F890
:1020D00008903046BDE8F087BDE8F04700F064BAEC
:1020E000BDE8F047FFF76ABF04F5805393F86270CC
:1020F000012F04D1177907F00307022F57D0117968
:1021000001F00300012808D0022803D0C84380074B
:1021100003D05AE083F8628057E083F8625054E0BD
:10212000107930B141F26200012101554DE023E008
:1021300003E041F26200055547E01279172120467D
:10214000172A00D811460A4621490DE004E01BE099
:1021500022E015E01CE023E0127A1B2120461B2A16
:1021600000D811460A461B4900F083FA2846B1E719
:10217000BDE8F04700F0E0B9BDE8F04700F05EB917
:10218000BDE8F04700F08CB9BDE8F04700F0B3B807
:10219000BDE8F04700F0FFB8BDE8F04700F075BAC1
:1021A000BDE8F04700F0CDBA5278920704D5242359
:1021B000052200F035FA8CE7A4F6947202F500527D
:1021C0000CCAFFF7E9FE002883DBE560CEE70000DC
:1021D000340100204B0100202DE9F047D0F8BC620B
:1021E000074606F580548846B4F86400256F4FF41E
:1021F000805145438D4200D30D46B5FBF0F083B2CC
:10220000D7F8C00206F11001E26ED0F810C089467E
:102210004046E047002809DA1123042241463846A7
:1022200000F0FEF94FF0FF30BDE8F0872B464A463C
:102230008121384600F029FFB4F86400E26EB5FB56
:10224000F0F1B5FBF0F01144E166216F081A206748
:10225000A16BA1EB0501A16301D103203072002025
:10226000E2E72DE9F0478846D0F8BC12064601F5B2
:1022700080544FF48057B4F86400256F4543BD4245
:1022800000D33D46B5FBF0F083B2D6F8C002103162
:10229000E26ED0F814C089464046E047002809DACB
:1022A000032304224146304600F0BAF94FF0FF30D4
:1022B000BDE8F087B4F86400E26EB5FBF0F11144BC
:1022C000E166B5FBF0F1226F531A2367A16BA1EB16
:1022D0000501A1630AD04343BB4200D33B464A46B3
:1022E0000121304600F032FE0020E1E700213046B7
:1022F000FFF7DCFCF8E72DE9F047D0F8BC520746C1
:102300001646287A894678BB05F580544FF0FF3889
:10231000207F000630D594F86200022809D0D7F853
:10232000C00281684846884748B13A23022249469C
:1023300001E03A230222384600F072F911E0D6F8A3
:102340000200494600BA20F0FF0270790243E266BB
:10235000B6F8070043BA38462367FFF71DFE00288A
:1023600003DA4046BDE8F0870CE0B4F86410206F53
:102370004843A169884203D02023617F0522DAE720
:10238000022028724FF48050E86049463846BDE884
:10239000F047FFF721BF2DE9F047D0F8BC520746C0
:1023A0001646287A894690BB05F580544FF0FF38D1
:1023B000207F000633D594F86200022809D0D7F8B0
:1023C000C00281684846884748B13A2302224946FC
:1023D00001E03A230222384600F022F914E056F8D0
:1023E000020F494600BA20F0FF02F0780243E2668D
:1023F000706800BA20F0FF03F07903433846236782
:10240000FFF7CAFD002803DA4046BDE8F0870CE07C
:10241000B4F86410206F4843A169884203D0202398
:10242000617F0522D7E7022028724FF48050E860D0
:1024300049463846BDE8F047FFF7CEBE70B50546C1
:102440000E46D5E9AF40436841F264002218001DF2
:10245000211830469847D0B904F5805292F86200AE
:10246000022814D0906E401E010E2174010C61747C
:10247000010AA174E074002020756075B2F8640050
:10248000010AA175E0750820E060002070BD3A23C4
:1024900002223146284600F0C3F84FF0FF3070BDED
:1024A0002DE9F04106461546D6E9AF400F46436890
:1024B00041F264002218001D21183846984780B95F
:1024C00004F5805292F8620002280AD0D5F80A007A
:1024D000697B00BA20F0FF000843E060002001465D
:1024E0000DE03A2302223946304600F099F84FF0C9
:1024F000FF30BDE8F0812318401C1974C0B2E368B6
:102500008342F8D8906E401E030E2375030C63754A
:10251000030AA375E07521766176B2F86400010ABA
:10252000A176E076D5F80A00697B00BA20F0FF00BA
:102530000843E0600020DCE77CB505460E46D5E99F
:10254000AF406A46436801A93046984718BB41F23C
:102550006200005D02281ED0002001462218401CA7
:1025600080B211740C28F9D30820E0740198401E41
:10257000020E2275020C6275020AA275E075022035
:1025800020766176BDF80000010AA176E0760C2085
:10259000E06000207CBD3A2302223146284600F04C
:1025A0003FF84FF0FF307CBD70B5D0F8BC1201F59C
:1025B00080539C6914B3002005460C18401CC0B21F
:1025C00025741228F9D3702008740C20C87593F86C
:1025D000600093F86140A0421AD001EBC00404F5FA
:1025E0008254401C26788E7426790E776479C0B2A6
:1025F0004C7783F86000042808D009E0597F202335
:10260000052200F00DF84FF0FF3070BD83F86050E8
:102610001220C8601079122800D8C860002070BD50
:1026200010B5D0F8BC1201F5805090F8614001EB74
:10263000C40404F5805484F8402090F8612001EB34
:10264000C20202F5805282F8443090F861300022D4
:1026500001EBC30101F5805181F8452090F861102C
:10266000491CC9B280F86110042901D180F86120A9
:1026700010BD10B5C26004E0521E92B284188B5C8B
:102680002374002AF8D1002010BD2DE9F047D0F8BE
:10269000BC5206461746287A894620B13046BDE826
:1026A000F047FFF7DEBD05F580544FF0FF38A06915
:1026B000A0B3207F000631D4D6F8C0028168484616
:1026C000884728B13A230AE03046FFF7A9FF1BE00C
:1026D000D6F8C002C1684846884718B127230222AD
:1026E0004946F1E7D7F80200494600BA20F0FF0258
:1026F00078790243E266B7F8070043BA30462367A9
:10270000FFF74AFC002802DA4046BDE8F087B4F83B
:102710006400236F4343A069984203D02023617F64
:102720000522D1E74FF48050834200D303460120B5
:102730002872014605F11002304600F007FC002027
:10274000E3E72DE9F047D0F8BC5207461646287A51
:102750008A4620B13846BDE8F047FFF782BD05F54F
:1027600080544FF0FF39A06910B1207F000606D5D4
:10277000617F202305223846FFF752FF2DE0D7F86E
:10278000C0028168504688474FF0050808B13A23D7
:1027900006E0D7F8C002C1685046884740B12723F9
:1027A000022251463846FFF73BFF85F8088014E0C7
:1027B00056F8020F514600BA20F0FF02F0780243AB
:1027C000E266706800BA20F0FF03F07903433846F0
:1027D0002367FFF7E1FB002802DA4846BDE8F087EF
:1027E000B4F86400236F4343A0699842C0D14FF40A
:1027F0008050834200D3034601202872014605F130
:102800001002384600F0A2FB0020E7E7F8B50446C6
:1028100040684FF48273984221D1A0684FF48065DC
:10282000B0F5004F01D0A8420AD12068066826F012
:10283000400606606068984211D1A068A8420ED098
:1028400000920B4600228021204600F039F8002833
:1028500004D0606D40F0200060650320F8BD009258
:102860000B4600220121EFE738B504461248134B0E
:102870000068B0FBF3F04FF47A735843009060683F
:10288000B0F5827F0DD10B460092002280212046B8
:1028900000F016F870B1606D40F020006065032014
:1028A00038BD009830B1401E009020688068C04359
:1028B0000006F6D5002038BD7C00002000366E01F1
:1028C0002DE9F0411D4617460E460446DDF81880F6
:1028D00008E0681C06D0FDF711FEA0EB0800A84236
:1028E0000BD255B12068806836EA000030D0002055
:1028F000B842EED10020BDE8F0812068416821F0A7
:10290000E00141606068B0F5827F0BD1A068B0F54E
:10291000004F02D0B0F5806F04D12068016821F02B
:1029200040010160A06AB0F5005F09D1206801682C
:1029300021F4005101602068016841F400510160F8
:10294000012084F85100002084F850000320D2E7D1
:102950000120CDE74FF480300860C01110800020C6
:10296000704700207047002070470020704700200B
:10297000704710B5144608465B020022214601F05C
:102980008BFC002010BD70B51D4616460C46104647
:1029900001F058FB6B0200223146204601F0BCFDDD
:1029A000002070BD70470178407841EA00207047F0
:1029B000FDF7AABD30B593B030216846FDF752FC53
:1029C00014210CA8FDF74EFC18480025016841F0C1
:1029D00080510160006800F0805011901448016837
:1029E00041F4404101600068022400F4404011902D
:1029F00001200090000401908001CDE906401920DB
:102A00000890C020CDE9090404200B906846FEF729
:102A100095FB0CA90F2081E83100E002CDE90F05FC
:102A200003210CA8FEF7B8FA13B030BD40380240BD
:102A3000007000400548016841F4700101600349DD
:102A40004FF00060803908607047000088ED00E0BA
:102A500010B5D0F8B8220AB152689047002010BDD6
:102A6000134610B50A46002100F070FA002010BD90
:102A7000134610B50A46002100F007FB002010BDE8
:102A800010B50446802100F0E5FA2046BDE810406C
:102A9000002100F0DFBA10B505210023C0F8941220
:102AA0001A46194600F052FA002010BD10B5022354
:102AB0008261C0F89432C26113460A46002100F0D8
:102AC000E4FA002010BD10B504210023C0F89412D0
:102AD0001A46194600F0D9FA002010BD10B50A4672
:102AE000024903A000F0DFF8004810BDA008002054
:102AF0004D534320436F6E666967000012200880C3
:102B0000004870472000002010B50A46024903A083
:102B100000F0C9F8004810BDA00800204D53432024
:102B2000496E746572666163650000000420088068
:102B3000004870471C00002010B50A46024903A057
:102B400000F0B1F8004810BDA008002053544D69B2
:102B500063726F656C656374726F6E696373000096
:102B600010B50A46024903A000F09DF8004810BDC8
:102B7000A008002053544D3332204D61737320530D
:102B8000746F72616765000010B51A2008800A48EA
:102B90000168001D0468001D0068081809D008229B
:102BA0000649FEF749FF0549042210312046FEF789
:102BB00043FF0248801E10BD107AFF1F3600002020
:102BC000F8B504460020ADF8000048880D46010A1B
:102BD00008295FD2DFE801F05E0409175E5E3C451C
:102BE000D4F8B412207C0A6819E0207C0226002860
:102BF000D4F8B80205D0C16A6846884701464670D5
:102C000039E0816AF8E7C0B2062843D2DFE800F075
:102C1000030A1014181CD4F8B402426805E069468F
:102C200090471CE0D4F8B402826892B3207CF6E7A7
:102C3000D4F8B402C268F8E7D4F8B4020269F4E741
:102C4000D4F8B4024269F0E7D4F8B4028269ECE740
:102C5000207CF0B9D4F8B802416B68468847014639
:102C600009E0207CA8B9D4F8B802016B684688470F
:102C7000014607204870EA888AB1BDF8000040B1DB
:102C8000824200D90246ADF800202046FFF70EFF31
:102C9000F8BDFFE729462046FFF7F2FEF8E7204699
:102CA000FFF711FFF4E770B5002300281ED00025C0
:102CB000044602E06D1CEDB2641C2678002EF9D1AA
:102CC000022404EB450414801278CA545B1C0322CE
:102CD000CA5400245B1C06E0CA545B1CDAB28C5454
:102CE000521CD3B2401C0278002AF5D170BD0100FD
:102CF0004FF0000004D0012901D0022901D00320A7
:102D000070470120704730B4A0B1D0F8B84200231A
:102D10000CB1C0F8B832D0F8CC420CB1C0F8CC320B
:102D200009B1C0F8B412012180F89C12027030BCC5
:102D300000F0BCB830BC0320704710B5D0F8C40216
:102D4000FDF7E4FCBDE81040FFF7D1BF10B5D0F8A7
:102D5000C402FDF7B5FCBDE81040FFF7C8BF70B571
:102D60001646044649B1D4F8B80242691AB194F83B
:102D70009C02032842D0032070BDD4F89412002591
:102D800004F11400022932D1D0E902318B4206D974
:102D90005A1A826031462046FFF76AFE0FE09942D8
:102DA00014D14068884211D3D4F8981288420DD2C9
:102DB000002211462046FFF75BFEC4F8985200231C
:102DC0001A461946204600F0C1F810E0D4F8B802BF
:102DD000C16829B194F89C02032801D12046884794
:102DE0008021204600F036F92046FFF754FE94F883
:102DF000A002012806D184F8A05203E020469047A3
:102E00000028B9D1002070BD10B51346044649B161
:102E1000D4F8B80282691AB194F89C02032824D02D
:102E2000032010BDD4F8941204F5AA70032920D110
:102E3000D0E9021291420AD98A1A8260C06882429D
:102E400000D3024619462046FFF70AFE11E0D4F8E7
:102E5000B802016929B194F89C02032801D12046E7
:102E600088472046FFF72FFE03E0204690470028C2
:102E7000D7D1002010BD0020704710B5012180F887
:102E80009C12D0F8B82212B1526801799047002004
:102E900010BD10B5D0F8C402FDF766FCBDE81040C7
:102EA000FFF725BFD0F8C402FDF778BC10B5017854
:102EB00039BB15490222C1F80404C0F8C4124FF00E
:102EC000A0400860042048600020C1E90320C1E957
:102ED000062008624862C86208630846FDF738FFAA
:102EE00008B1FDF728FA80210748FDF7A8FB40222A
:102EF00000210548FDF7A7FB802201210248FDF7CC
:102F0000A2FB002010BD0000980400200A0601F07A
:102F10007F01D0F8C402C1EBC10100EB810002D5F2
:102F200090F83E00704790F8FE017047002070470F
:102F30000020704710B51C461346D0F8C402224644
:102F4000FDF735FCBDE81040FFF7D1BE10B5D0F855
:102F5000C402FDF75CFCBDE81040FFF7C8BE70B5C9
:102F60000125044680F89C520020C4F89402606059
:102F7000C4F8A402D4F8BC0228B1D4F8B8020021E5
:102F80004268204690470022402311462046FFF722
:102F9000D1FF4026A4F86451334600228021204608
:102FA000C4F86061FFF7C6FFA5840020266270BDEB
:102FB00090F89C12042903D190F89D1280F89C127D
:102FC0000020704710B590F89C12032904D1D0F866
:102FD000B812C96901B18847002010BD01740020F2
:102FE000704710B5D0F8C402FDF781FFBDE810406E
:102FF000FFF77DBE70B5044600F2AA20054600F03A
:1030000027F90120C4F89402B4F8B002C4F8980279
:1030100094F8AA0210F01F010AD001290ED002294B
:1030200012D000F080012046BDE8704000F012B8D8
:1030300029462046BDE8704000F09CB9294620464C
:10304000BDE8704000F0C6BA29462046BDE8704091
:1030500000F01ABA10B5D0F8C402FDF7FCFBBDE8C9
:103060001040FFF744BE10B5D0F8C402FDF75AFF78
:10307000BDE81040FFF73BBE90F89C1280F89D120F
:10308000042180F89C120020704710B5D0F8C402CB
:10309000FDF71BFCBDE81040FFF729BE10B5FEF799
:1030A00085FD002010BD10B5FEF79EFD002010BD6F
:1030B00070B504460121FFF749FE0025A4F87851B8
:1030C00081212046FFF742FE25872046FEF7AAFD14
:1030D000D4F8BC0218B101F071FAC4F8BC52002057
:1030E00070BD00000A210180004870471C010020CB
:1030F0002021018000487047DC0000202021018051
:1031000000487047BC000020202101800048704723
:10311000FC00002070B5044641F2740001F084FA0E
:10312000C0B1C4F8BC02207C0125C0B140230222FA
:1031300001212046FFF7FEFEA4F878514023022229
:1031400081212046FFF7F6FE25872046FEF76FFD1A
:10315000002070BD0020C4F8BC02022070BD4FF4F6
:1031600000763346022201212046FFF7E3FEA4F851
:1031700078513346E3E719B1C0F8C0120020704718
:1031800003207047F8B50025D0F8BC720646ADF8AC
:10319000005008780C4610F0600120D020293DD165
:1031A0006178FE2902D0FF2938D10EE0618881BB09
:1031B000E188012932D1000630D5D6F8C0028069F5
:1031C00080470122394638601FE0618809BBE188E9
:1031D000F9B9000622D43046FEF74EFD23E06078B0
:1031E00030B1012824D00A2809D00B2816D111E0CB
:1031F00096F89C02032811D10222694605E096F850
:103200009C0203280AD10122391D3046FFF74EFCEB
:1032100009E003E096F89C02032806D021463046D8
:10322000FFF72EFC03252846F8BDA0787860FAE762
:1032300096F89C020328F6D160880028F3D1217902
:103240003046FFF726FE21793046FEF793FCEAE789
:1032500070B5054611F8010B2870087868704C1C91
:103260002046FFF7A0FB6880A41C2046FFF79BFBCD
:10327000A880A01CFFF797FBE88070BD38B5044616
:103280000020ADF8000041B1C4F8B812896A684660
:103290008847C4F8CC02002038BD032038BD024660
:1032A0000320D2F8B832002B02D01B681046184712
:1032B000704700002DE9F0410F462C4E897800251B
:1032C00004463170012906D939462046FFF7D8FB5C
:1032D0000320BDE8F08194F89C0202280CD003285A
:1032E0001DD039462046FFF7CBFB31782046FFF74B
:1032F000AFFB03252846ECE799B320466160FFF752
:10330000CEFF050004D039462046FFF7B9FBF1E7B0
:103310002046FFF7D8FB032084F89C02EAE74FF031
:103320000208C1B1606888421BD0C1B22046FFF7D5
:103330008FFB317820466160FFF7B1FF050010D0A8
:1033400039462046FFF79CFB21792046FFF780FB9A
:1033500084F89C82CEE784F89C8220466160FFF767
:1033600077FB2046FFF7AFFBC4E70000800000209A
:10337000FFF779BE2DE9F0410A78002512F06002CE
:1033800008D0202A01D0402A71D1D0F8B822926802
:10339000904731E04B78002201260A2B67D2DFE804
:1033A00003F0415E6658660805662D29FFF708FCA4
:1033B0005FE004468888D8B9C888C8B9488880289A
:1033C00016D200F07F0794F89C02032810D084F8EE
:1033D0009E7239462046FFF704FE2046FFF773FB36
:1033E0001FB1022084F89C0243E084F89C6240E014
:1033F00020463CE0FFF75EFF05463AE0CB88012B14
:1034000035D190F89C32012B04D0022B02D0032B33
:103410002DD104E08260012200F1080116E00122B2
:10342000011D13E090F89C22012A03D0022A01D04A
:10343000032A1CD1CA88022A19D1C660D0F8A41266
:1034400009B10321C160022200F10C01FFF72EFB3C
:103450000FE0498801290CD1C0F8A46211E090F86E
:103460009C32012B08D0022B06D0032B04D0FFF78F
:1034700007FB2846BDE8F08149880129F9D1C0F849
:10348000A422FFF720FBF4E72DE9F0410D460446A6
:1034900028780027097910F060000BD0202801D08F
:1034A000402873D1D4F8B802294682682046904754
:1034B00007468CE06878D8B3012822D0032865D16C
:1034C00094F89C02022802D003287CD10BE000294A
:1034D00079D0802977D02046FFF7BCFD8021204697
:1034E000FFF7B8FD73E0688838B931B1802904D09E
:1034F000E88810B92046FFF7ADFD2046FFF7E3FA54
:1035000065E094F89C020228E1D003285BD168882A
:10351000D8BB480602D02046FFF70FFC2046FFF735
:10352000D2FAD4F8B80229468268204690474EE085
:10353000FFE794F89C020026022802D0032842D11B
:1035400011E009B180293ED1080601F07F0000EBAF
:10355000800004EB800101D5143101E001F5AA716E
:1035600002220E602BE0080601F00F0000EB800045
:1035700004EB80000BD5808C40B101F07F0000EBA4
:10358000800004EB800514350CE020E01BE0B0F86F
:103590006401C0B101F07F0000EB800004EB800506
:1035A00005F5AA7541B1802906D02046FFF7AEFC8B
:1035B00010B10120286000E02E600222294620463A
:1035C000FFF774FA03E029462046FFF759FA384618
:1035D000BDE8F08170B50646087800240D4610F06D
:1035E000600003D0202801D0402817D196F89C0213
:1035F000012803D0022801D003280FD128790128FF
:103600000CD8D6F8B8028268304690470446E8885D
:10361000204306D13046FFF756FA02E03046FFF766
:103620002FFA204670BD000070B50A78012302F021
:103630000F054E78AB401B4CD0F81C58012E17D00C
:1036400045EA0343C0F81C3800EB4210D0F8002BC9
:1036500012040BD4D0F8002B0B89C978C3F30A03EA
:103660001A4344EA81410A43C0F8002B002070BD90
:103670009BB21D43C0F81C5800EB4210D0F8003933
:103680001B04F3D4D0F800390D89C978C5F30A05B5
:1036900089042B4341EA82510B432343C0F800398C
:1036A000E4E7000000800010D0F800196FF30A0171
:1036B000C0F80019D0F8041841F48071C0F804185B
:1036C0000020704770B5044606990A9E049D0D9827
:1036D000012916D0E06840F04000E060204600F08C
:1036E0002BF8A16B1EB321F48031A163012D07D10A
:1036F000A16841F00601A160A16841F02001A1602C
:1037000070BDA16B21F48031A163E168094A1140C9
:10371000E160E16821F44011E160012803D1E06833
:1037200040F48010E060204600F006F8DEE741F447
:103730008031DAE7BFFFBDFF01220C4902E0521CD5
:103740008A420BD80369002BF9DA026942F00102C0
:103750000261012204E0521C8A4201D90320704711
:103760000369DB07F7D1002070470000400D03001C
:1037700030B54C780A78012300EB4212012C2CD092
:10378000D2F8004B002C0BDAD2F8004B44F0006466
:10379000C2F8004BD2F8004B44F08044C2F8004B12
:1037A000D0F83C580C7804F00F0403FA04F425EA2E
:1037B0000444C0F83C48D0F81C48097801F00F01D7
:1037C0008B4024EA0341C0F81C18D2F8000B1949B9
:1037D0000840C2F8000B002030BDD2F80049002C90
:1037E0000BDAD2F8004944F00064C2F80049D2F87C
:1037F000004944F08044C2F80049D0F83C480D78B4
:1038000005F00F0503FA05F5ADB2AC43C0F83C482E
:10381000D0F81C48097801F00F018B4099B28C4315
:10382000C0F81C48D2F8000903490840C2F8000952
:10383000D1E700000078F3EF007833ECD0F8001EF9
:1038400021F00301C0F8001ED0F8041821F0020195
:10385000C0F8041800207047D0F8001E21F00301C2
:10386000C0F8001ED0F8041841F00201C0F8041896
:10387000002070472DE9F04F00250E460446DDF884
:103880002CC0DDF824B0109F2846294604EB8002A6
:10389000C2F80411401C0F28F8D32046C7B1806B32
:1038A00020F40012A263A06B40F40022A263084639
:1038B0008846C4F8000ED4F800182046C4F8001852
:1038C000BCF1010F16D0D0F8001841F0030116E04A
:1038D000D0F8040840F00202C4F80428A06B40F4B9
:1038E0000012A263A06B20F40022A263A06B20F45C
:1038F0008022DBE7D0F800180BB141F00101C0F8DD
:103900000018102100F090FA00B10125204600F0C7
:103910007BFA00B101254046C4F81088C4F8148829
:10392000C4F81C8800214FF000694FF0904A4FF610
:103930007F3314E004EB4112D2F800C9BCF1000F50
:1039400006DA11B1C2F800A904E0C4F8009901E058
:10395000C2F80009C2F81009C2F80839491C8E42A1
:10396000E8D8002115E000BF04EB4112D2F800CBEB
:10397000BCF1000F06DA11B1C2F800AB04E0C4F8E4
:10398000009B01E0C2F8000BC2F8100BC2F8083B24
:10399000491C8E42E8D8D4F8101821F48072C4F87B
:1039A0001028A0616FF080406061BBF1000F03D16F
:1039B000A06940F01000A061A06909490843A06116
:1039C0000C9818B1A06940F00800A061012F03D144
:1039D000A06904490843A0612846BDE8F08F0000B3
:1039E00000383C8004000040816821F001018160C2
:1039F0000020704770B50D784E78434CEBB200EB69
:103A00004313012E1FD0D3F8100B6FF31200C3F82D
:103A1000100BD3F8100B2040C3F8100B486908B105
:103A200088684861D3F8100B40F40020C3F8100BED
:103A3000D3F8100B8C68C4F312042043C3F8100BA6
:103A4000012A55D058E04E69002ED3F8106932D0C3
:103A50006FF31206C3F81069D3F810692640C3F853
:103A600010694E698C68A64200D94C61D3F81049A0
:103A700044F40024C3F81049D3F810494E69C6F342
:103A800012063443C3F81049012A22D000EB451234
:103A9000D2F8003943F00443C2F800394A6932B31E
:103AA000D0F83428097801F00F03012199400A4326
:103AB000C0F8342826E02640C3F81069D3F810492E
:103AC00044F40024C3F81049D3F810496FF31204EA
:103AD000D8E7096919B100EB4512C2F8141900EBD7
:103AE0004510D0F8001941F00441C0F8001909E070
:103AF000C86808B1C3F8140BD3F8000B40F00440B9
:103B0000C3F8000B002070BDFFFF07E010B5036C89
:103B1000134CA34203D9D0F8003B002B1EDB00233B
:103B2000C0F8103BD0F8103B43F40023C0F8103B22
:103B3000D0F8103B43F01803C0F8103BD0F8103B0E
:103B400043F0C043C0F8103B012907D1C0F8142B43
:103B5000D0F8001B41F08021C0F8001B002010BDF0
:103B60000A30544F4A780B78012A00EB43100BD0EF
:103B7000D0F8002B22F40012C0F8002BC9780329DA
:103B800014D0022912D017E0D0F8002922F4001234
:103B9000C0F80029C978032901D002290CD1D0F836
:103BA000001941F08051C0F8001905E0D0F8001B61
:103BB00041F08051C0F8001B002070470A784B7814
:103BC000D1B200EB4110012B12D0D0F8001B00291C
:103BD00006DB2AB1D0F8001B21F08041C0F8001BA1
:103BE000D0F8001B41F40011C0F8001B0020704702
:103BF000D0F80019002906DB2AB1D0F8001921F00D
:103C00008041C0F80019D0F8001941F40011C0F843
:103C10000019EBE7F8B50C784F78774DE3B26FF009
:103C2000604600EB4313012F26D0D3F8104B6FF3FF
:103C30001204C3F8104BD3F8104B2C40C3F8104BB0
:103C40004C69002C74D08D682C44641EB4FBF5F4D0
:103C5000D3F8105BA4B206EAC4463543C3F8105B40
:103C6000D3F8105B8E686643C6F312042543C3F88D
:103C7000105B012A71D0A6E04F691FB3D3F8107909
:103C80006FF31207C3F81079D3F810792F40C3F8F7
:103C900010794F698D682F447F1EB7FBF5F506EA52
:103CA000C545D3F810693543C3F81059D3F81059F6
:103CB0004E69C6F312063543C3F81059CD78012D6D
:103CC00010D01BE0D3F810692E40C3F81069D3F868
:103CD000105945F40025C3F81059D3F810596FF363
:103CE000120509E0D3F8105925F0C045C3F8105962
:103CF000D3F8105945F00055C3F81059012A18D0CF
:103D000000EB4413D3F8004944F00444C3F80049DD
:103D1000CC78012C2FD04A6962B3D0F834280978C6
:103D200001F00F03012199400A43C0F8342860E0F4
:103D300036E00A691AB100EB4413C3F81429C978B4
:103D400001290FD1D0F80818C90500EB4411D1F8AA
:103D5000002903D442F0005202E030E042F08052E9
:103D6000C1F8002900EB4410D0F8001941F00441DB
:103D7000C0F800193DE0D0F80848E405D3F8004940
:103D800002D444F0005401E044F08054C3F80049E8
:103D900000928A8A93B20A78C96800F03FF928E055
:103DA000D3F8104B8D68C5F312052C43C3F8104BA4
:103DB000D3F8104B44F40024C3F8104B59E7CA68F9
:103DC0000AB1C3F8142BC97801290CD1D0F808081E
:103DD000C005D3F8000B02D440F0005001E040F0E1
:103DE0008050C3F8000BD3F8000B40F00440C3F838
:103DF000000B0020F8BD0000FFFF07E0816841F0E4
:103E00000101816000207047002110220261054AF3
:103E1000491C914201D9032070470369DB06F7D49E
:103E200000207047400D03000022202343EA811147
:103E300001610549521C8A4201D903207047036978
:103E40009B06F7D400207047400D0300D0F8080807
:103E500010F0060004D0022803D0062801D00F205D
:103E6000704702207047406900F001007047D0F8A9
:103E70001818D0F81C08084080B27047D0F81818FD
:103E8000D0F81C080840000C704710B5D0F8103866
:103E9000D0F8342801F00F0400EB4110E24002F0AA
:103EA0000102D0F8080943EAC212104010BD00EB2D
:103EB0004111D1F8081BD0F8140808407047416937
:103EC000806908407047D21C10B59308002200F5A5
:103ED000805002E00468521C10C19A42FAD308468E
:103EE00010BD10B5C26822F0C042C260012902D0E4
:103EF00029B1012010BDC16841F0005102E0C16844
:103F000041F08041C1603220FCF716FA002010BD5C
:103F1000D0F8002822F4FE62C0F80028D0F800286B
:103F20004FF4FE6303EA01110A43C0F800280020A1
:103F300070470000022A3ED1264A274B0A449A4283
:103F400001D20F2138E0254A254B0A449A4201D27A
:103F50000E2131E0234A244B0A449A4201D20D211A
:103F60002AE0224A224B0A449A4201D20C2123E041
:103F7000204A214B0A449A4201D20B211CE01F4ADD
:103F80001F4B0A449A4201D20A2115E01D4A1E4BDA
:103F90000A449A420FD31D4A1D4B0A449A4201D249
:103FA000082109E01B4A11441B4A914201D2072112
:103FB00002E0062100E00921C26822F47052C260CA
:103FC000C2684FF4705303EA81210A43C2600020A3
:103FD00070470000405327FF00350C00401E1BFFB8
:103FE00040420F0000DC0BFF804F1200808CF9FE76
:103FF00020D6130060B6E5FE60E3160000D3CEFEC7
:1040000040771B00C05BB3FEC091210000CA91FE47
:1040100020753800E05459FEE09C410010B5029C28
:1040200064B9DB1C9C0800EB0230002300F58050D3
:1040300002E004C902605B1CA342FAD3002010BD59
:10404000FEE7000070B506461C4D01E0FCF774F970
:1040500095F8270001284FF00100F7D085F82700D8
:1040600000F0C4F92C69744300F0E6F9144E002204
:1040700010213046FCF73CFA202000F0A7F9287800
:10408000092802D3200E00F0A1F9C4F3074000F084
:104090009DF9C4F3072000F099F9E0B200F096F919
:1040A000012210213046FCF723FA00F09FF901208D
:1040B000FCF742F9002085F8270070BDA00A002017
:1040C000000002402DE9F041354C0126304684F8CD
:1040D0002760FCF731F9012210213248FCF708FA79
:1040E0006420FCF729F900F05FF887B20821A7F5F2
:1040F00080470422022300254801113F0A2F4BD29A
:10410000DFE807F02825221F1B1713100A050A21D4
:1041100021704FF4806103E0092121704FF4007198
:10412000E16119E02170E06116E007212170802132
:10413000F6E7062121704021F2E7052121702021B8
:10414000EEE722701021EBE703222270E8E72370EC
:10415000E26101E02670E36160814FF480512161EA
:10416000E169090161610903B1FBF0F0E0604FF41E
:104170008030A061880A206200F0F6F8012000F08B
:10418000BDF8022000F0BAF8032000F0B7F884F878
:1041900027500120BDE8F08184F827500020F9E77E
:1041A000A00A0020000002402DE9F0410F4E00223D
:1041B00010213046FCF79CF99F2000F007F9A5205C
:1041C00000F004F90546A52000F000F90446A520FA
:1041D00000F0FCF80746012210213046FCF788F970
:1041E000280440EA04203843BDE8F0810000024082
:1041F0002DE9F0411C4616460F468046234D01E04E
:10420000FCF79AF895F8270001284FF00100F7D045
:1042100085F827006889A04200D304B90446311903
:10422000814200D9841B07FB0066194F0022102130
:104230003846FCF75DF90B2000F0C8F8287809280B
:1042400002D3300E00F0C2F8C6F3074000F0BEF80B
:10425000C6F3072000F0BAF8F0B200F0B7F800207B
:1042600000F0B4F8A2B2642341460A48FDF788F989
:10427000012210213846FCF73BF90120FCF75CF8DD
:10428000002085F82700BDE8F0810000A00A00208A
:1042900000000240700100202DE9F041164D074654
:1042A00016462869984200D303B90346B04221D983
:1042B000F218824201D9841B00E01C46084600F037
:1042C0007BF801466889B6FBF0F201EB0208B6FB09
:1042D000F0F100FB11662346324641463846FFF7AF
:1042E00087FF688908F10108801B241A002607440B
:1042F000002CF0DCBDE8F081A00A002070B5184E5B
:104300000446002210213046FCF7F2F8154D012C2E
:1043100011D0022C19D0152000F058F8A52000F07B
:1043200055F8044685F82600012210213046FCF796
:10433000DFF8204670BD052000F048F8A52000F009
:1043400045F8044685F82400EEE7352000F03EF8F5
:10435000A52000F03BF8044685F82500E4E70000BE
:1043600000000240A00A002070B5114D002210216B
:104370002846FCF7BDF84B2000F028F80024A520C3
:1043800000F024F8641CE4B2042CF8D3094E002495
:10439000A52000F01BF83119641CE4B24870082C09
:1043A000F6D32846BDE8704001221021FCF7A0B8E2
:1043B00000000240A00A002003490A6942434889DC
:1043C000B2FBF0F070470000A00A002001B582B0F7
:1043D00064200090012301AA02A90348FDF726FAF0
:1043E0009DF804000EBD00007001002070B5012092
:1043F000FBF7A2FF0E4D002210212846FCF778F8AB
:104400000520FFF7E3FF0B4CA520FFF7DFFF84F843
:1044100024000120FBF790FF94F82400C007F3D19B
:104420002846BDE8704001221021FCF761B8000069
:1044300000000240A00A002010B5094C0022102103
:104440002046FCF755F80620FFF7C0FF0122102197
:104450002046FCF74DF8BDE810400120FBF76CBF8B
:10446000000002402DE9F0471D4616460F468146E2
:10447000264C01E0FBF760FF94F8270001284FF07D
:104480000100F7D084F827006089A919814200D87B
:1044900005B9851B7119814200D9851BFFF7A6FF5D
:1044A000FFF7CAFFDFF86880002210214046FCF7C2
:1044B0001FF80220FFF78AFF608907FB006620785B
:1044C000092802D3300EFFF781FFC6F30740FFF73C
:1044D0007DFFC6F30720FFF779FFF0B2FFF776FF05
:1044E000AAB2642349460B48FDF7F2F801221021D5
:1044F0004046FBF7FDFFFFF779FF0120FBF71CFFAC
:10450000002084F82700BDE8F0870000A00A002002
:1045100000000240700100202DE9F041164D0746D1
:1045200016462869984200D303B90346B04221D900
:10453000F218824201D9841B00E01C460846FFF7AE
:104540003BFF01466889B6FBF0F201EB0208B6FBBF
:10455000F0F100FB11662346324641463846FFF72C
:1045600081FF688908F10108801B241A002607448E
:10457000002CF0DCBDE8F081A00A00200907090E3C
:10458000002804DB00F1E02080F80014704700F000
:104590000F0000F1E02080F8141D704702E008C809
:1045A000121F08C1002AFAD170477047002001E0AD
:1045B00001C1121F002AFBD17047000010B500286E
:1045C00021D0114B0022001F196803E0814203D85B
:1045D0000A4649680029F9D152B11368841A9C42ED
:1045E00004D1006818441060104602E0506000E0FA
:1045F000186039B102680B1A934203D10B681A4450
:1046000002604968416010BD68010020FBF784FF2B
:10461000FEF7D0F9FDF76AFBFDF7B0FBFDF7D2FB23
:10462000FFF750FDFEE70000F0B50B30154D20F010
:1046300007010024144A0FE003688B420BD38B421E
:1046400005D95E1A43184768C3E9006700E043686C
:10465000136002C004E0021D10680028ECD120465F
:10466000002802D1286808B10020F0BD064A07489A
:104670001060074A121A22F00702C0E90024012044
:104680002860D7E76C01002068010020CC0A0020D8
:10469000C80C0020008002021F00000053544D206F
:1046A0002020202050726F64756374202020202009
:1046B00020202020302E30310000000000000000BB
:1046C0000102030406070809E8460008000000206C
:1046D00070010000DC020008A04700087001002003
:1046E000580F0000AC45000813FD2A14082D2B1BA1
:1046F0000839041A61041A89041ADD141A09081702
:104700000403090412013202164083042A572602C8
:1047100001020301031A1A031367291B0855041A1F
:104720006B041A6F041A73041A87041A630413942F
:10473000461A083F1182105324F41315311408B19E
:10474000301B088508811A9D101AA704C11AFD1094
:104750001AF1041A09282AE5081302202008010189
:1047600004C0320904180A02080650050705810230
:10477000B02C070501070914202240292019070B36
:104780001C0907204B0A06FC29B4190A1A80021BCF
:10479000082001322203120812622609121B91001E
:040000050800019955
:00000001FF
